:04000000D2EF3EF00D
:107DA400CA0EF66E7D0EF76E000EF86E00EE01F050
:107DB40010EE4AF00900F5CFEEFFE550E150FAE18C
:107DC40000010AEF3FF03D00740030000E00750022
:107DD40038001500540055003F007300670033005D
:107DE4006D0078003E002E002A0076006E004B00E5
:107DF4003F0006005B004F0066006D007C004700FA
:107E04007F00670077007C0039005E007900710014
:107E14000F0EC16E000E956E1E0E926E2DC08CFF5D
:107E24000D0E4C6EAF0E4B6EB60EE82EFED74B2EDB
:107E3400FCD74C2EFAD700D01D0E926E2FC08CFFAB
:107E44000D0E4C6EAF0E4B6EB60EE82EFED74B2EBB
:107E5400FCD74C2EFAD700D01B0E926E31C08CFF8B
:107E64000D0E4C6EAF0E4B6EB60EE82EFED74B2E9B
:107E7400FCD74C2EFAD700D0170E926E33C08CFF6D
:107E84000D0E4C6EAF0E4B6EB60EE82EFED74B2E7B
:107E9400FCD74C2EFAD700D00F0E926E35C08CFF53
:107EA4000D0E4C6EAF0E4B6EB60EE82EFED74B2E5B
:107EB400FCD74C2EFAD700D01E0E926E03C08CFF56
:107EC4000D0E4C6EAF0E4B6EB60EE82EFED74B2E3B
:107ED400FCD74C2EFAD700D01D0E926E13C08CFF27
:107EE4000D0E4C6EAF0E4B6EB60EE82EFED74B2E1B
:107EF400FCD74C2EFAD700D01B0E926E01C08CFF1B
:107F04000D0E4C6EAF0E4B6EB60EE82EFED74B2EFA
:107F1400FCD74C2EFAD700D0170E926E3FC08CFFC0
:107F24000D0E4C6EAF0E4B6EB60EE82EFED74B2EDA
:107F3400FCD74C2EFAD700D00F0E926E19C08CFFCE
:107F44000D0E4C6EAF0E4B6EB60EE82EFED74B2EBA
:107F5400FCD74C2EFAD700D01E0E926E43C08CFF75
:107F64000D0E4C6EAF0E4B6EB60EE82EFED74B2E9A
:107F7400FCD74C2EFAD700D01D0E926E05C08CFF94
:107F84000D0E4C6EAF0E4B6EB60EE82EFED74B2E7A
:107F9400FCD74C2EFAD700D01B0E926E19C08CFF62
:107FA4000D0E4C6EAF0E4B6EB60EE82EFED74B2E5A
:107FB400FCD74C2EFAD700D0170E926E43C08CFF1C
:107FC4000D0E4C6EAF0E4B6EB60EE82EFED74B2E3A
:107FD400FCD74C2EFAD700D00F0E926E13C08CFF34
:107FE4000D0E4C6EAF0E4B6EB60EE82EFED74B2E1A
:0C7FF400FCD74C2EFAD700D000EF00F0B4
:020000040020DA
:08000000FFFFFFFFFFFFFFFF00
:020000040030CA
:0E000000000C1F1FFF8385FF0FC00FE00F4095
:00000001FF
